:020000040800F2
:100000000050002021020008B9240008BD24000887
:10001000C1240008C5240008C9240008000000000D
:100020000000000000000000000000001127000890
:10003000CD24000800000000D9270008D1240008C2
:10004000791D0008791D0008791D0008791D000838
:10005000791D0008791D0008791D0008791D000828
:10006000791D0008791D0008791D0008791D000818
:10007000791D0008791D0008791D0008791D000808
:10008000791D0008791D0008791D0008791D0008F8
:10009000791D0008791D0008791D0008791D0008E8
:1000A000791D0008791D0008791D0008791D0008D8
:1000B000791D0008791D0008791D0008791D0008C8
:1000C000791D0008791D0008791D0008791D0008B8
:1000D000791D0008791D0008791D0008791D0008A8
:1000E000791D0008791D0008791D00080000000036
:1000F0000000000000000000000000000000000000
:1001000000000000000000005FF808F100B583B0B7
:1001100001F0AAFD304B314A1360314A1360314B74
:10012000314A03E011681960043304322F498B42CD
:10013000F8D32A4B1A682E4B9A4204D1284B1A68DE
:100140002C4B9A4200D0FEE7234B2B4A13602B4ADC
:1001500013602B4B02E000221A600433294A9342B9
:10016000F9D3254B1B6813B9244B1B6803B1FEE779
:1001700001F086FD694601A801F052FD224C234B97
:100180001C1BA410002504E01F4B53F82530984792
:100190000135AC42F8DC1E4C1E4B1C1BA410002584
:1001A00004E01B4B53F8253098470135AC42F8DC8E
:1001B0000099019802F04CF80546174C174B1C1B90
:1001C000A41004E0013C144B53F824309847002C51
:1001D000F8DC284601F000FDBABADECA00000020B3
:1001E000E401002000000020085F0008E801002072
:1001F0007856341232547698E801002054110020C9
:10020000E8010020581100204C0300084C030008AE
:100210004C0300084C0300084C0300084C03000882
:1002200008B5FFF773FF00BF00BEFEE71EF0040F26
:100230000CBFEFF30880EFF309807146364A104790
:100240002DE9F04182B004468846084B5E6B9F6BF7
:100250009D6A074801F0ECFCCDF800803B46324631
:100260002946204601F010FD00BEFEE700ED00E04B
:10027000685B000800BEFEE71EF0040F0CBFEFF342
:100280000880EFF309807146244A10472DE9F041B8
:1002900082B004468846084B5E6B9F6B9D6A074898
:1002A00001F0C6FCCDF800803B4632462946204688
:1002B00001F0EAFC00BEFEE700ED00E0785B00081C
:1002C0001EF0040F0CBFEFF30880EFF309807146B6
:1002D000134A10472DE9F04182B004468846084B86
:1002E0005E6B9F6B9D6A074801F0A2FCCDF8008011
:1002F0003B4632462946204601F0C6FC00BEFEE7DA
:1003000000ED00E0845B000800BEFEE700BEFEE7F3
:1003100000BEFEE770470000410200088D020008A1
:04032000D5020008FA
:10032400085F000800000020E8010020085F0008C2
:100334000000001000000010E80100205811002007
:08034400000000100000001091
:1003500010B5044601F08AF8064BA3FB0030800973
:1003600000F03AFB002221464FF0FF3000F002FB84
:10037000002010BDD34D621008B5074A136843F042
:1003800010031360032000F0E3FA0F20FFF7E0FFF3
:1003900001F092FF002008BD00200240024A1368CD
:1003A00001331360704700BFEC010020014B186857
:1003B000704700BFEC01002010B582B00190FFF73C
:1003C000F5FF0446FFF7F2FF001B019B9842F9D3AB
:1003D00002B010BDF0B44B6901229A400468D4F811
:1003E000003223F47C534D6A43EA052343F00103B2
:1003F000C4F800320568D5F81C32D4432340C5F850
:100400001C32CB69C3B90568D5F80C322340C5F856
:100410000C3206684B69CF688D8845EA074548333A
:1004200046F8335003684E698F680D8845EA0745E2
:10043000483603EBC6035D60CB69012B18D1056814
:10044000D5F80C321343C5F80C3206684B690F68B7
:100450008D8845EA0745483346F8335003684E69AE
:100460008F688D8945EA0745483603EBC6035D6012
:100470008B6933B90568D5F804322340C5F80432D6
:1004800005E00568D5F804321343C5F804320B695A
:1004900033B90568D5F814321C40C5F8144205E09C
:1004A0000468D4F814321343C4F814320B6A012BD5
:1004B00005D10168D1F81C321A43C1F81C22026828
:1004C000D2F8003223F00103C2F800320020F0BC61
:1004D000704700BF002800F0918038B5044690F8BE
:1004E000393013F0FF0F04D1002380F8383001F0C9
:1004F0002BFF022384F839302268136823F00203AB
:1005000013602268136843F001031360FFF74EFF86
:1005100005460BE0FFF74AFF401B0A2806D90320D7
:1005200084F83900002384F8383038BD23685A68CD
:1005300012F0010FEED05A6812F0010F4FD0A269ED
:10054000012A01D0002100E08021E269012A01D1C5
:1005500041F04001226A012A01D141F02001626A82
:10056000012A01D141F01001A26A012A01D141F012
:100570000801E26A012A01D141F004011A6822F05F
:10058000FC020A431A602168A268E3681A432369DF
:100590001A4363691A436368013B1343CB612268C2
:1005A000136823F001031360FFF700FF05460BE01B
:1005B000FFF7FCFE401B0A2806D9032084F8390007
:1005C000002384F8383038BD23685A6812F0010FD0
:1005D000EED05B6813F0010F03D1002302E000238B
:1005E00000E001232BB10020E063012384F83930BF
:1005F00038BD042384F83930012038BD012070470C
:10060000F8B590F83830012B00F0D480012380F841
:10061000383090F83930DBB2222B03D1322380F806
:10062000393002E0122380F8393003689A6812F0FA
:10063000806F09D19A6812F0006F07D19A6812F0A2
:10064000805F05D0022504E0002502E0012500E0DE
:100650000425042D00F0A68005F1180212019C5813
:1006600004F001049C50036B9A6862B9066805F1B6
:10067000180424013759D3F800E0DA6842EA4E53EF
:100680003B4333510EE0D0F800E005F1180424019B
:100690005EF804705E6842EAC602DB681A433A43B9
:1006A0004EF804200E460446026B136903F00F0354
:1006B0001361036805F1180109010B445A6822F01F
:1006C0000F025A6003680B445868226B1269024398
:1006D0005A602268206BC77D837D1B0443EA076351
:1006E000477D43EA0723007D034328010244C2F803
:1006F00088312268276B97F81BE0BB7E1B0443EA16
:100700000E6397F819E043EA0E233F7E3B43024411
:10071000C2F88C312268535843F001035350FFF75D
:1007200045FE07460FE0B6F1FF3F0CD026B1FFF7BC
:100730003DFEC01B864206D2032084F83900002308
:1007400084F83830F8BD3DB923689A681A4B934352
:1007500014BF0123002310E0012D07D123689A68FC
:10076000164B934314BF0123002306E023689A68C5
:10077000134B934314BF01230023002BD3D194F8D0
:100780003930DBB2322B06D1222384F839300023F2
:1007900084F8383002E0012384F83930002084F8EE
:1007A0003800F8BD042380F83930002380F8383051
:1007B0000120F8BD0220F8BD03000004000300087A
:1007C00000000310F8B590F83830012B00F0BD8020
:1007D000012380F8383090F83930DBB2122B03D186
:1007E000322380F8393002E0222380F8393016466F
:1007F0000D460446FFF7DAFD07460FE0B6F1FF3F6E
:100800000CD026B1FFF7D2FDC01B864206D20320D2
:1008100084F83900002384F83830F8BD3DB92368E6
:10082000DB6813F0030F0CBF0123002306E02368ED
:100830001B6913F0030F0CBF01230023002BDDD134
:10084000626B216805F11B031B01CB5803F0040305
:100850009360636B9A683AB9216805F11B02120133
:100860008A58520D1A6006E0216805F11B02120138
:100870008A58D2085A60616B226805F11B031B017C
:10088000D25802F00202CA60616B22681A445268B0
:1008900002F00F020A61626B21680B445B68C3F3CC
:1008A0000723D361616B22682B011A44D2F8B82167
:1008B0000A75616B22681A44D2F8B821120A4A7587
:1008C000616B22681A44D2F8B821120C8A75616BE8
:1008D00022681A44D2F8B821120ECA75616B2268D8
:1008E0001A44D2F8BC210A76616B22681A44D2F805
:1008F000BC21120A4A76616B22681A44D2F8BC21E4
:10090000120C8A76626B21680B44D3F8BC311B0E43
:10091000D3762DB92268D36843F02003D36004E076
:100920002268136943F02003136194F83930DBB275
:10093000322B03D1122384F8393002E0012384F8EA
:100940003930002084F83800F8BD0220F8BD00BF1F
:10095000074AD36823F4E0631B041B0C000200F475
:10096000E060184340F0BF6040F40030D060704752
:1009700000ED00E030B4164BDB68C3F30223C3F193
:100980000704042C28BF04241D1D062D01D9DD1EDB
:1009900000E00025012303FA04F4013C2140A940B2
:1009A000AB40013B1A400A43002806DA00F00F0072
:1009B0001201D2B2074B1A5407E01201D2B200F171
:1009C000604000F5614080F8002330BC704700BFF4
:1009D00000ED00E014ED00E00138B0F1807F0AD2B4
:1009E000064B5860F021064A82F8231000209860D8
:1009F00007221A6070470120704700BF10E000E036
:100A000000ED00E0042805D1054A136843F0040313
:100A100013607047024A136823F0040313607047A1
:100A200010E000E0F0B583B000263446D5E00122A6
:100A3000A2400B6813409A4240F0CE804D68122DC0
:100A40002DD00BD8022D27D003D85DB3012D1ED099
:100A500035E0032D30D0112D1BD030E0614FBD4269
:100A600020D008D8A7F58017BD421BD007F58037E6
:100A7000BD4224D116E05C4FBD4213D007F580374C
:100A8000BD420FD0A7F58017BD4218D10AE0CE684D
:100A900015E0CE68043612E0CE6808360FE0CE6866
:100AA0000C360CE08D684DB1012D02D10261082693
:100AB00005E04261082602E0002600E00426FF2B44
:100AC00001D8864601E000F1040EFF2B01D8A200F8
:100AD00002E0A4F108029200DEF800700F259540B4
:100AE00027EA050506FA02F22A43CEF800204A68F2
:100AF00012F0805F70D03D4A956945F0010595611F
:100B0000926902F001020192019AA708BD1C384ABD
:100B100052F8255004F0030292004FF00F0E0EFA27
:100B200002FE25EA0E0E334DA8420DD005F5806574
:100B3000A8420BD005F58065A84209D005F580656F
:100B4000A84207D1032506E0002504E0012502E0C4
:100B5000022500E0042505FA02F24EEA02020237FD
:100B6000234D45F827204A6812F4803F05D005F54B
:100B700080652A681A432A6004E01F4D2A6822EA29
:100B800003022A604A6812F4003F04D01A4D6A68D2
:100B90001A436A6004E0184D6A6822EA03026A6038
:100BA0004A6812F4801F04D0134DAA681A43AA6041
:100BB00004E0114DAA6822EA0302AA604A6812F40E
:100BC000001F04D00C4DEA681343EB6004E00A4DAB
:100BD000EA6822EA0303EB6001340F2C7FF627AFAB
:100BE00003B0F0BD000021100000311000100240E1
:100BF0000000014000080140000401400AB1016109
:100C0000704709040161704730B583B0044603683A
:100C100013F0010F00F09680B24B5B6803F00C03F9
:100C2000042B0AD0AF4B5B6803F00C03082B1BD1DD
:100C3000AC4B5B6813F4803F16D04FF4003393FA4B
:100C4000A3F3A84B1A684FF4003393FAA3F3B3FA53
:100C500083F303F01F0322FA03F313F0010F71D0A3
:100C60006368002B6ED1A0E26368B3F5803F05D1C5
:100C70009C4A136843F48033136026E063B903F1A0
:100C8000804303F504331A6822F480321A601A682C
:100C900022F480221A6018E0B3F5A02F0CD103F1E2
:100CA0008043A3F53C331A6842F480221A601A6824
:100CB00042F480321A6008E08A4B1A6822F48032CB
:100CC0001A601A6822F480221A606368EBB1FFF799
:100CD0006DFB054605E0FFF769FB401B642800F249
:100CE00066824FF4003393FAA3F37E4B1A684FF4F5
:100CF000003393FAA3F3B3FA83F303F01F0322FA4A
:100D000003F313F0010FE6D01CE0FFF74FFB05469D
:100D100005E0FFF74BFB401B642800F24A824FF4CA
:100D2000003393FAA3F36F4B1A684FF4003393FA2E
:100D3000A3F3B3FA83F303F01F0322FA03F313F0D0
:100D4000010FE6D1236813F0020F00F09080654B8D
:100D50005B6813F00C0F0AD0624B5B6803F00C0366
:100D6000082B27D15F4B5B6813F4803F22D102230D
:100D700093FAA3F35B4B1A68022393FAA3F3B3FA33
:100D800083F303F01F0322FA03F313F0010F03D0E0
:100D90002369012B40F00F825248036823F0F801C9
:100DA0006369F82292FAA2F2B2FA82F293400B43FC
:100DB00003605CE023699BB3012292FAA2F3B3FAC9
:100DC00083F39B0003F1844303F584031A60FFF768
:100DD000EDFA054605E0FFF7E9FA401B022800F2AC
:100DE000EC81022393FAA3F33E4B1A68022393FA91
:100DF000A3F3B3FA83F303F01F0322FA03F313F010
:100E0000010FE8D03748036823F0F8016369F8223E
:100E100092FAA2F2B2FA82F293400B43036026E008
:100E2000012393FAA3F3B3FA83F39B0003F1844302
:100E300003F5840300221A60FFF7B8FA054605E0BF
:100E4000FFF7B4FA401B022800F2B981022393FA9B
:100E5000A3F3244B1A68022393FAA3F3B3FA83F3A0
:100E600003F01F0322FA03F313F0010FE8D1236804
:100E700013F0080F52D0A3693BB3012292FAA2F3F8
:100E8000B3FA83F3184941F82320FFF78FFA054698
:100E900005E0FFF78BFA401B022800F29281022343
:100EA00093FAA3F293FAA3F20E4A526A93FAA3F3C7
:100EB000B3FA83F303F01F0322FA03F313F0010FD5
:100EC000E7D00120FFF778FA28E0012393FAA3F393
:100ED000B3FA83F30021044A42F82310FFF766FABD
:100EE000054609E00010024080044242FFF75EFA26
:100EF000401B022800F26781022393FAA3F293FABF
:100F0000A3F2BA4A526A93FAA3F3B3FA83F303F053
:100F10001F0322FA03F313F0010FE7D1236813F044
:100F2000040F00F0A180B14BDA6942F08052DA611F
:100F3000DB6903F080530193019BAD4A136843F4CE
:100F400080731360FFF732FA054605E0FFF72EFACB
:100F5000401B642800F23981A54B1B6813F4807F85
:100F6000F4D0E368012B05D1A04A136A43F00103D2
:100F7000136222E063B903F1804303F504331A6A74
:100F800022F001021A621A6A22F004021A6214E0C4
:100F9000052B09D1954B1A6A42F004021A621A6AAB
:100FA00042F001021A6208E0904B1A6A22F0010234
:100FB0001A621A6A22F004021A62E36853B3FFF756
:100FC000F5F9054607E0FFF7F1F9401B41F28833D8
:100FD000984200F2FC80022393FAA3F293FAA3F35F
:100FE000B3FA83F35B0943F00203DBB2022B02D1B5
:100FF0007E4B1A6A01E07D4B5A6A022393FAA3F3EF
:10100000B3FA83F303F01F0322FA03F313F0010F83
:10101000D9D029E0FFF7CAF9054607E0FFF7C6F97E
:10102000401B41F28833984200F2D380022393FAA6
:10103000A3F293FAA3F3B3FA83F35B0943F0020339
:10104000DBB2022B02D1694B1A6A01E0674B5A6A84
:10105000022393FAA3F3B3FA83F303F01F0322FAF4
:1010600003F313F0010FD9D1E369002B00F0B38033
:101070005E4A526802F00C02082A00F0AE80022B91
:1010800068D14FF0807393FAA3F3B3FA83F39B0014
:1010900003F1844303F5840300221A60FFF786F905
:1010A000054605E0FFF782F9401B022800F2978011
:1010B0004FF0007393FAA3F34C4B1A684FF0007390
:1010C00093FAA3F3B3FA83F303F01F0322FA03F3B3
:1010D00013F0010FE6D1236AB3F5803F06D14349EF
:1010E0004B6823F40032A36813434B603F484368C6
:1010F00023F47411236A626A13430B4343604FF075
:10110000807393FAA3F3B3FA83F39B0003F1844350
:1011100003F5840301221A60FFF748F9044604E04E
:10112000FFF744F9001B02285BD84FF0007393FAD5
:10113000A3F32E4B1A684FF0007393FAA3F3B3FA9C
:1011400083F303F01F0322FA03F313F0010FE7D038
:10115000002049E04FF0807393FAA3F3B3FA83F3CE
:101160009B0003F1844303F5840300221A60FFF718
:101170001DF9044604E0FFF719F9001B022832D8D4
:101180004FF0007393FAA3F3184B1A684FF00073F3
:1011900093FAA3F3B3FA83F303F01F0322FA03F3E2
:1011A00013F0010FE7D100201EE001201CE0032016
:1011B0001AE0032018E0012016E0032014E00320C9
:1011C00012E0032010E003200EE003200CE00320D7
:1011D0000AE0032008E0002006E0012004E00320EC
:1011E00002E0032000E0032003B030BD0010024005
:1011F0000070004030B486B01F4D02AC28686968AA
:10120000AA68EB680FC42B8AADF804301B4B5B68EF
:1012100003F00C02082A2AD103F470114FF4701263
:1012200092FAA2F2B2FA82F221FA02F206A90A4472
:1012300012F8102C13F4803F15D0104B5B6803F4A8
:1012400000314FF4003393FAA3F3B3FA83F321FA96
:1012500003F306A90B4413F8140C094BB3FBF0F08D
:1012600000FB02F004E0074800FB02F000E0044845
:1012700006B030BC704700BF385A0008001002406A
:1012800000127A0000093D0070B5744B1B6803F032
:1012900007038B420BD2714A136823F007030B43F9
:1012A0001360136803F00703994240F0C680036897
:1012B00013F0020F06D06A4C636823F0F0028368D3
:1012C000134363600D460446036813F0010F75D0A5
:1012D0004268012A13D14FF4003393FAA3F3604B11
:1012E00019684FF4003393FAA3F3B3FA83F303F0CE
:1012F0001F0321FA03F313F0010F27D19FE0022A05
:1013000013D14FF0007393FAA3F3554B19684FF0C4
:10131000007393FAA3F3B3FA83F303F01F0321FAE4
:1013200003F313F0010F11D18BE0022393FAA3F31F
:101330004B4B1968022393FAA3F3B3FA83F303F038
:101340001F0321FA03F313F0010F7CD044494B68CB
:1013500023F0030313434B60FFF728F80646636846
:10136000012B0ED106E0FFF721F8801B41F28833F4
:1013700098426AD83A4B5B6803F00C03042BF2D115
:101380001CE0022B15D106E0FFF710F8801B41F29C
:10139000883398425BD8324B5B6803F00C03082B10
:1013A000F2D10BE0FFF702F8801B41F2883398423C
:1013B0004FD82B4B5B6813F00C0FF3D1274B1B68F6
:1013C00003F007039D420AD2244A136823F007035F
:1013D0002B431360136803F007039D423BD123683E
:1013E00013F0040F06D01E494B6823F4E062E36853
:1013F00013434B60236813F0080F07D0184A536853
:1014000023F46053216943EAC1035360FFF7F2FEFE
:10141000134B5B6803F0F002F02393FAA3F3B3FAE3
:1014200083F322FA03F30F4AD35CD8400E4B1860C3
:101430000F20FEF78DFF002070BD012070BD012040
:1014400070BD012070BD012070BD032070BD032060
:1014500070BD032070BD012070BD00BF00200240A0
:1014600000100240945B00080C000020014B18683B
:10147000704700BF0C00002008B5FFF7F7FF084BCE
:101480005B6803F4E0624FF4E06393FAA3F3B3FA0A
:1014900083F322FA03F3034AD35CD84008BD00BFAC
:1014A00000100240A45B000808B5FFF7DFFF084BFF
:1014B0005B6803F460524FF4605393FAA3F3B3FAFA
:1014C00083F322FA03F3034AD35CD84008BD00BF7C
:1014D00000100240A45B00082DE9F04105460E46CD
:1014E00090461C46FEF762FF0746B8F1000F2AD06F
:1014F0005BE0B4F1FF3F26D024B1FEF757FFC01BDD
:10150000844220D22A68536823F0E00353602A689B
:10151000136823F040031360AB6AB3F5005F09D191
:101520002A68136823F4005313602A68136843F48D
:1015300000531360012385F85130002385F85030A3
:101540000320BDE8F0812B689B6836EA0303D0D105
:101550000020BDE8F081B4F1FF3F26D024B1FEF7B2
:1015600025FFC01B844220D22A68536823F0E00381
:1015700053602A68136823F040031360AB6AB3F525
:10158000005F09D12A68136823F4005313602A68A6
:10159000136843F400531360012385F8513000238E
:1015A00085F850300320BDE8F0812B689B6836EA4F
:1015B0000303D0D00020BDE8F08100BF30B583B078
:1015C00090F85150EDB2012D40F0C580002900F097
:1015D000C480002A00F0C38090F85040012C00F035
:1015E000C080012480F85040122480F8514000242B
:1015F000446501638286C286C4648464846384878C
:10160000C487826AB2F5005F09D101680A6822F4D2
:1016100000520A6001680A6842F400520A60826857
:10162000B2F5004F04D101680A6842F480420A60B2
:101630000268116811F0400F03D1116841F04001B8
:1016400011601D460446C368002B2CD1436813B1BA
:10165000C38E012B1AD12268236B591C21631B787E
:10166000D360E38E013BE38610E02B46002202218B
:101670002046FFF731FF002875D12268236B591CE3
:1016800021631B78D360E38E013BE386E38E002B5E
:10169000EBD1A36AB3F5005F33D12268136843F43A
:1016A000805313602DE0436813B1C38E012B1CD10E
:1016B0002368226B1288DA60236B02332363E38E84
:1016C000013BE38611E02B46002202212046FFF772
:1016D00003FF002849D12368226B1288DA60236B4C
:1016E00002332363E38E013BE386E38E002BEAD1D2
:1016F000A36AB3F5005F04D12268136843F48053F2
:1017000013602B46002202212046FFF7E5FE28B198
:10171000636D43F010036365032327E02B4601222A
:1017200080212046FFF7D8FE034628B1636D43F0C1
:1017300010036365032319E0A2682AB92268D168FF
:10174000019192680192019A012284F851200022AD
:1017500084F850200AE0022308E0012306E0012378
:1017600004E0022302E0032300E00323184603B051
:1017700030BD00BF00283CD010B5044690F8513071
:1017800013F0FF0F01D100F017FE022384F851304F
:101790002268136823F04003136021686268A3681D
:1017A0001A43E3681A4323691A4363691A43A36916
:1017B00003F400731343E2691343226A1343A26ADA
:1017C0001A430A602168638B03F00402636A1343BF
:1017D0004B602368E26A1A612268D36923F40063CC
:1017E000D3610020044B18706065012384F85130E8
:1017F00010BD0120704700BFF00100202DE9F84323
:10180000814601680B6923F44052C36813430B619E
:10181000816803691943436919430068C26822F467
:10182000B05323F00C030B43C360D9F800104B698D
:1018300023F44072D9F8183013434B61D9F80050A3
:101840005B4B9D4259D1FFF72FFE00EB800000EB70
:101850008000D9F80440A400B0FBF4F4554EA6FB78
:10186000043464092401FFF71FFE00EB800000EB45
:101870008000D9F804309B00B0FBF3F7FFF714FEAB
:1018800000EB800000EB8000D9F804309B00B0FB37
:10189000F3F3A6FB03235B094FF0640808FB137303
:1018A0001B013233A6FB03235B0903F0F0031C4446
:1018B000FFF7FAFD00EB800000EB8000D9F8043060
:1018C0009B00B0FBF3F7FFF7EFFD00EB800000EBB0
:1018D0008000D9F804309B00B0FBF3F3A6FB032390
:1018E0005B0908FB13731B013233A6FB0323C3F30D
:1018F00043131C44AC60BDE8F883FFF7BDFD00EB6B
:10190000800000EB8000D9F80440A400B0FBF4F4A0
:10191000284EA6FB043464092401FFF7ADFD00EB5B
:10192000800000EB8000D9F804309B00B0FBF3F797
:10193000FFF7A2FD00EB800000EB8000D9F8043037
:101940009B00B0FBF3F3A6FB03235B094FF0640895
:1019500008FB13731B013233A6FB03235B0903F05F
:10196000F0031C44FFF788FD00EB800000EB8000D3
:10197000D9F804309B00B0FBF3F7FFF77DFD00EBD7
:10198000800000EB8000D9F804309B00B0FBF3F33B
:10199000A6FB03235B0908FB13731B013233A6FB71
:1019A0000323C3F343131C44AC60BDE8F88300BFBA
:1019B000003801401F85EB512DE9F04105460E46E8
:1019C00090461C46FEF7F2FC0746B8F1000F26D001
:1019D00053E0B4F1FF3F22D024B1FEF7E7FCC01B77
:1019E00084421CD22A68D36823F08003D3602A681B
:1019F000D36823F02003D3602A68D36823F480736C
:101A0000D3602A68536923F001035361012385F8E9
:101A10003930002385F838300320BDE8F0812B6889
:101A20001B6836EA0303D4D10020BDE8F081B4F18D
:101A3000FF3F22D024B1FEF7B9FCC01B84421CD268
:101A40002A68D36823F08003D3602A68D36823F020
:101A50002003D3602A68D36823F48073D3602A6894
:101A6000536923F001035361012385F839300023C2
:101A700085F838300320BDE8F0812B681B6836EA12
:101A80000303D4D00020BDE8F08100BF58B310B5E7
:101A9000044690F8393013F0FF0F04D1002380F88A
:101AA000383000F0B7FC022384F839302268D3685C
:101AB00023F40053D3602046FFF7A0FE2268136989
:101AC00023F4904313612268536923F02A0353617E
:101AD0002268D36843F40053D3600020E0630123FD
:101AE00084F8393010BD0120704700BF70B504463E
:101AF0000D461E4690F83930DBB2012B01D0222B67
:101B00005AD1002D5AD0002A5AD094F83830012BDF
:101B100058D0012384F838300023E36394F8393037
:101B2000DBB2222B03D1322384F8393002E01223B6
:101B300084F83930A284E28423E0013BE384A36883
:101B4000B3F5805F12D13346002280212046FFF793
:101B500033FF002838D122682B88C3F30803536071
:101B600023690BB902350CE001350AE03346002247
:101B700080212046FFF720FF40BB23682A785A6067
:101B80000135E38C002BD8D133460022402120467A
:101B9000FFF712FF0346D8B994F83920D2B2322A9F
:101BA00003D1222284F8392002E0012284F839206E
:101BB000002284F838200CE002230AE0012308E028
:101BC000012306E0022304E0032302E0032300E0F4
:101BD0000323184670BD00BFFEE700BF08B50D4BDC
:101BE0001B6813B90C4A0B4B1A600A4B1A68C31CCA
:101BF00023F00303134409498B4206D901F020FA6C
:101C00000C2303604FF0FF3008BD02490B60104603
:101C100008BD00BFF401002058110020004C002036
:101C200001230360014B0B60704700BF04000020DC
:101C30000FB400B583B004AB53F8042B019380219B
:101C4000064801F0BBFE002803DD0146034800F012
:101C500007F803B05DF804EB04B07047FC01002006
:101C60004FF0FF30704700BF08B500F087F8024B17
:101C7000024A9A6008BD00BF00ED00E000000008C5
:101C800008B500F0A1F808BDF8B504460D461746A2
:101C90001E462648FFF7CCFF21682548FFF7C8FFFE
:101CA00061682448FFF7C4FFA1682348FFF7C0FF1D
:101CB000E1682248FFF7BCFF21692148FFF7B8FF20
:101CC00061692048FFF7B4FFA1691F48FFF7B0FF23
:101CD000E1691E48FFF7ACFF1D48FFF7A9FF294641
:101CE0001C48FFF7A5FF1C4CE16A1C48FFF7A0FF4A
:101CF000216B1B48FFF79CFFE16B1A48FFF798FF29
:101D000015F0800F03D039461748FFF791FF15F4FF
:101D1000004F03D031461548FFF78AFF1448FFF7FC
:101D200087FF06991348FFF783FFF8BD4C5A000858
:101D30005C5A00086C5A00087C5A00088C5A00084B
:101D40009C5A0008AC5A0008BC5A0008CC5A00083B
:101D5000DC5A0008E85A000800ED00E0F85A0008D4
:101D6000085B0008185B0008285B0008385B000867
:101D7000485B0008505B0008FEE700000F4B1A6844
:101D800042F001021A6059680D4A0A405A601A6806
:101D900022F0847222F480321A601A6822F48022BF
:101DA0001A605A6822F4FE025A604FF41F029A60C9
:101DB0004FF00062034B9A60704700BF0010024072
:101DC0000000FFF800ED00E01F4B5B6803F00C0320
:101DD000042B06D0082B08D03BBB1C4A1C4B1A60B6
:101DE00026E01A4A1A4B1A6022E0174A53685268D2
:101DF000C3F38343023312F4803F05D1154A02FB3B
:101E000003F3134A136013E00F4A526812F4003FC1
:101E100005D0104A02FB03F30D4A136008E00B4A99
:101E200002FB03F30A4A136002E0084A084B1A60F7
:101E3000054B5B68C3F30313074AD15C044A13687C
:101E4000CB401360704700BF0010024000127A00C0
:101E50000C00002000093D00945B00082DE9F041D2
:101E600088B0304B9A6942F010029A619A6902F088
:101E700010020192019A9A6942F004029A619A69E9
:101E800002F004020292029A9A6942F008029A61F0
:101E90009B6903F008030393039BDFF894800022FF
:101EA0004FF460414046FEF7A9FE1F4E0022532129
:101EB0003046FEF7A3FE1D4C002241F201012046F0
:101EC000FEF79CFE4FF4604304930125059502271D
:101ED000079704A94046FEF7A5FD532304930595F3
:101EE000079704A93046FEF79DFD41F601030493D0
:101EF00005950323079304A92046FEF793FD2223AB
:101F0000049300250595069504A92046FEF78AFD51
:101F10002A464FF400612046FEF770FE08B0BDE887
:101F2000F08100BF0010024000080140000C014099
:101F30000010014008B50022FEF760FE08BD00BF9A
:101F400008B50122FEF75AFE08BD00BF70B582B089
:101F50000023ADF806303A4C204601F0FBFC4FF070
:101F6000FF3382B221463748FFF7C0FD4FF47A7243
:101F700000213548FEF726FCB8B1344D284601F063
:101F8000E9FC304C4FF0FF3382B229462046FFF780
:101F9000ADFD2B4D284601F0DDFC4FF0FF3382B242
:101FA00029462046FFF7A2FDD5E7274B5B6B1A7D3C
:101FB0009D7D1C7E022A2BD1254E4FF48051304648
:101FC000FFF7B8FF04EB052402A921F8024D3C23DA
:101FD00001222048FFF7F2FA4FF480513046FFF714
:101FE000AFFF1948036BCC221A75026B002353759F
:101FF000026B9375026BD375026B1376026B53768B
:10200000026B9376026BD3760521FEF7F9FAA2E70D
:102010000D48036BEE221A75026B00235375026B99
:102020009375026BD375026B1376026B5376026B5A
:102030009376026BD3760521FEF7E2FA8BE700BFB9
:10204000DC5B0008D410002074100020AC5B00089A
:10205000000C01401C100020FEE700BF00B58BB053
:102060002348244B0363244B4363244B0360022324
:10207000436000238360C3604FF480320261436198
:102080008361C361036243628362C362FEF722FA23
:1020900020B140F25F211A48FFF7DEFF1448036BBE
:1020A000C9221A60026B00239360026BD360026B3B
:1020B0000821116105930693012207924FF4C9513B
:1020C000009101934FF6E37102914FF6F87103917D
:1020D000049308920E2309936946FEF77BF920B119
:1020E00040F279210648FFF7B7FF0BB05DF804FB1B
:1020F0007410002084020020A00200200064004030
:10210000805C000808B50B480B4B03600B4B436029
:1021100000238360C36003610C2242618361C36159
:10212000FFF7B4FC20B140F2A2210548FFF794FF6D
:1021300008BD00BFD41000200038014020A10700D6
:10214000805C000808B50B480B4B03600B4B4360E9
:1021500000238360C36003610C2242618361C36119
:10216000FFF794FC20B140F2B7210548FFF774FF58
:1021700008BD00BF141100200044004020A107004A
:10218000805C000808B51048104B03604FF4827360
:102190004360002383604FF40062C26003614361C7
:1021A0004FF4007282613822C2610362436283622B
:1021B0000A23C362FFF7DEFA20B140F28F21044800
:1021C000FFF74AFF08BD00BF1C1000200038004088
:1021D000805C000800B591B00223069301230A93A6
:1021E00010230B9300230D9306A8FEF70DFD20B1DD
:1021F00040F229211448FFF72FFF0F2301930021FC
:10220000029103914FF480630493059101A8FFF7B5
:102210003BF820B140F237210B48FFF71DFFFFF7D5
:1022200025F90A4BA3FB00308009FEF7D5FB0420FB
:10223000FEF7E8FB00220F214FF0FF30FEF79AFB7C
:1022400011B05DF804FB00BF805C0008D34D621044
:1022500000B585B0FEF790F8FFF7BCFFFFF7FEFD75
:10226000FFF7FCFEFFF74EFFFFF76CFFFFF78AFF5B
:1022700000220121084600F0ABFB0B4B1860002246
:102280000121084600F0A4FB084B186000230393CB
:10229000029301930122009280220549054800F033
:1022A0004FFC00F0D1FCFEE77C0200208002002001
:1022B000905C00084D1F000800B583B0204B9A6960
:1022C00042F001029A619B6903F001030193019BB3
:1022D0000320FEF73DFB002211466FF00B00FEF7D6
:1022E00049FB002211466FF00A00FEF743FB002273
:1022F00011466FF00900FEF73DFB002211466FF01A
:102300000400FEF737FB002211466FF00300FEF7D2
:1023100031FB00220F216FF00100FEF72BFB0022A2
:102320000F214FF0FF30FEF725FB064A536823F0DC
:10233000E06343F00073536003B05DF804FB00BF3B
:1023400000100240000001400268184B9A422BD155
:1023500010B586B003F5D633DA6942F00072DA615F
:10236000DB6903F000730193019B4FF480730293C8
:102370000023039304930E4C02A92046FEF752FB60
:102380004FF400730293022303930323059302A9DE
:102390002046FEF747FB074A536823F4C04343F443
:1023A0008043536006B010BD704700BF006400401A
:1023B000000C0140000001400268144B9A4224D1F5
:1023C00010B586B003F5EC33DA6942F48042DA6185
:1023D000DB6903F480430193019B4FF42043029394
:1023E0000223039303230593094C02A92046FEF719
:1023F00019FB4FF48043029300230393049302A933
:102400002046FEF70FFB06B010BD704700380040B5
:10241000000C014010B586B00368234A934220D1D6
:10242000224B9A6942F480429A619B6903F480438B
:102430000093009B4FF40073029302230393032342
:1024400005931B4C02A92046FEF7ECFA4FF480637B
:10245000029300230393049302A92046FEF7E2FAB5
:1024600020E0144A93421DD1104BDA6942F4003245
:10247000DA61DB6903F400330193019B04230293C7
:102480000223039303230593094C02A92046FEF778
:10249000C9FA0823029300230393049302A9204658
:1024A000FEF7C0FA06B010BD00380140001002402F
:1024B0000008014000440040704700BFFEE700BF35
:1024C000FEE700BFFEE700BFFEE700BF704700BFAA
:1024D00008B5FDF763FF00F013FA08BD124A12F0C9
:1024E000070F07D0D11D21F00701C1F54063134448
:1024F0000A4601E04FF440630C480260002141604D
:102500001344083B23F0070309480360596019602E
:10251000991A51601360074B1960074B19604FF00F
:102520000042064B1A607047D4020020CC02002003
:10253000C8020020D80E0020C4020020D40E0020C3
:10254000124A00E01A4613688342FBD310B4516864
:102550005418A04203D140680144516010464168BC
:102560004418A3420CD10A4C2468A34206D05B68ED
:102570001944416013681B68036002E0046000E0D6
:102580000360904200D0106010BC7047CC02002065
:10259000C802002070B5044600F084FB304B1B6875
:1025A0000BB9FFF79BFF2F4B1B681C4247D164B14F
:1025B000083414F0070F08D024F00704083404F09E
:1025C000070313B100F0C2F8FEE7002C39D0264B08
:1025D0001B689C4237D8254B1D6801E02B461546E9
:1025E0006A68944202D92A68002AF7D11C4A126804
:1025F00095422AD01E6808362A681A606B681B1B31
:10260000102B0AD9281910F0070F02D000F09EF8FD
:10261000FEE743606C60FFF793FF6A6812490B683E
:102620009B1A0B60124909688B4201D210490B605A
:102630000C4B1B681A436A6000232B6006E00026DF
:1026400004E0002602E0002600E0002600F0C0FBC7
:1026500016F0070F02D000F079F8FEE7304670BDA3
:10266000C8020020D40E0020C4020020CC020020AA
:10267000D80E002038B338B50446A0F1080550F84C
:10268000043C114A126813EA020002D100F05EF81D
:10269000FEE754F8081C11B100F058F8FEE788B1C5
:1026A00081B923EA020344F8043C00F0FBFA54F831
:1026B000043C064A11680B4413602846FFF740FFAC
:1026C00000F086FB38BD7047D40E0020C402002005
:1026D00006480068006880F3088862B661B6BFF3F8
:1026E0004F8FBFF36F8F00DF00BF000008ED00E0E9
:1026F0004FF0807340F8043C40F8081C034B40F84E
:102700000C3C40F8202C4038704700BF5D27000883
:10271000074B19680868B0E8F00F80F30988BFF329
:102720006F8F4FF0000080F311884EF00D0E704750
:102730009C0F00204FF08052034B1A60BFF34F8F65
:10274000BFF36F8F704700BF04ED00E0EFF311801F
:102750004FF0500181F311887047002008B5054BF8
:102760001B68B3F1FF3F02D0FFF7F0FFFEE7FFF772
:10277000EDFFFEE71000002008B5FFF7E7FF094A6C
:10278000136801331360BFF34F8FBFF36F8F012BBB
:1027900007D1054B1B6813F0FF0F02D0FFF7D6FFE0
:1027A000FEE708BD1000002004ED00E080F3118872
:1027B000704700BF08B5074B1B6813B9FFF7C6FF8A
:1027C000FEE7013B034A136013B90020FFF7EEFF59
:1027D00008BD00BF10000020EFF30980BFF36F8F2A
:1027E0000D4B1A6820E9F00F10602DE908404FF0FA
:1027F000500080F3118800F08FFB4FF0000080F351
:102800001188BDE8084019680868B0E8F00F80F347
:102810000988BFF36F8F70479C0F002008B5FFF742
:1028200095FF00F047FA18B14FF08052024B1A6042
:102830000020FFF7BBFF08BD04ED00E0064B1B685E
:10284000064AA2FB03239B09013B054A13600722AA
:10285000044B1A60704700BF0C000020D34D62107B
:1028600014E000E010E000E000B583B01F4B1A78E0
:10287000D2B20192FF221A701B78DBB28DF80330BE
:102880009DF8033003F05003194A13700722194BC7
:102890001A6009E0174A1368013B13609DF8033082
:1028A0005B00DBB28DF803309DF8033013F0800F2E
:1028B000F0D1104A13681B0203F4E0631360019B1C
:1028C000DBB20A4A13700C4B1A6842F470021A60A9
:1028D0001A6842F070421A60FFF7B0FF0022074BFF
:1028E0001A60FFF7F5FEFFF739FF00BF00E400E0D4
:1028F000DC0E0020E00E002020ED00E010000020A3
:1029000008B500F08DFB012801D0FFF787FF08BD57
:1029100000F1080343604FF0FF328260C36003613F
:1029200000230360704700BF00230361704700BFAE
:1029300043684B609A688A609A6851609960086140
:1029400003680133036070470369426881689160DE
:102950008268416851605A68904201D182685A6029
:1029600000220261186801381860704738B510B944
:10297000FFF7ECFEFEE70D460446FFF7FDFE21687B
:10298000E26B236C03FB021060600020A063A16077
:10299000013A02FB0313E3604FF0FF336364A36467
:1029A00055B9236983B104F1100000F0F9FA012848
:1029B0000AD1FFF7BFFE07E004F11000FFF7A8FF00
:1029C00004F12400FFF7A4FFFFF7F4FE012038BD57
:1029D00070B510B9FFF7BAFEFEE70D46064619B10D
:1029E00001FB00F0013000E000204C30FFF7D2FD89
:1029F000044658B10DB9206002E000F14C030360B9
:102A0000E663256401212046FFF7B0FF14B9FFF704
:102A10009DFEFEE7204670BD0A4B1B681B680BB984
:102A2000012300E0002323B14FF0FF32064B1A6070
:102A30007047044B1B68DB68DB685A68024B1A60FE
:102A4000704700BFE40E0020A00F002038B50C46F0
:102A500019B98000FFF79EFD044654B15420FFF7DA
:102A600099FD054608B1046304E02046FFF702FE25
:102A700000E00025284638BD10B50446006BFFF77E
:102A8000F9FD2046FFF7F6FD10BD00BF70B5044606
:102A90001546002306E0C856E21882F83400CA56EC
:102AA00012B101330F2BF6D9002384F84330062DE1
:102AB00000D90625E56265640026A664201DFFF79F
:102AC00033FF04F11800FFF72FFF2461C5F107055C
:102AD000A5616462E66484F8506070BD38B5002476
:102AE00006E014200E4B00FB0430FFF711FF013409
:102AF000062CF6D90B4D2846FFF70AFF0A4C204654
:102B0000FFF706FF0948FFF703FF0948FFF700FF3B
:102B10000848FFF7FDFE084B1D60084B1C6038BDE0
:102B2000080F0020C80F0020DC0F0020B00F00208D
:102B3000F00E0020F00F0020E40E0020AC0F00206B
:102B40002DE9F04F83B00C9EDDF8348010B9FFF70B
:102B5000FDFDFEE78B4617469A468146062E02D9B2
:102B6000FFF7F4FDFEE70E991046FFF76FFF0446EE
:102B700000284BD0036B07F18045013D03EB850333
:102B800023F0070500970F9B32465946FFF77EFF5B
:102B9000524649462846FFF7ABFD2060B8F1000FCA
:102BA00001D0C8F80040FFF7E7FD214A1368013360
:102BB0001360204B1B683BB91E4B1C601368012B34
:102BC0000CD1FFF78BFF09E01B4B1B6833B9194B86
:102BD0001B68DB6A9E4201D3164B1C60174A1368C0
:102BE00001331360E36A012505FA03F014490A680A
:102BF00002430A6003EB83039A00211D114810442D
:102C0000FFF796FEFFF7D6FD2C4601E04FF0FF34AC
:102C1000012C09D1084B1B6833B1064B1B68DB6ADA
:102C20009E4201D9FFF786FD204603B0BDE8F08F34
:102C3000980F00209C0F0020E80E0020C40F0020F9
:102C400004100020080F002000B585B00023039376
:102C500002930193009380220D490E48FFF770FF05
:102C600001280ED1FFF772FD4FF0FF320A4B1A60B8
:102C700001220A4B1A600022094B1A60FFF7F4FD8B
:102C800003E010B9FFF762FDFEE705B05DF804FB55
:102C9000A05C0008012F0008A00F0020E80E002013
:102CA000A80F0020024A136801331360704700BF69
:102CB000940F0020F8B53B4B1B68002B64D13A4BB6
:102CC0001A6801321A601E6896B9384B1B681B6877
:102CD00013B1FFF73BFDFEE7344A1168344B186827
:102CE00010601960334A136801331360FFF794FED4
:102CF000314B1B689E4203D200243AE0012400E0DD
:102D000000242A4B1B681B680BB9012300E0002339
:102D100023B14FF0FF32284B1A602AE0234B1B6887
:102D2000DB68DD686B689E4202D2234A136020E0B4
:102D30002F1D3846FFF708FEAB6A1BB105F11800DE
:102D4000FFF702FEEB6A012202FA03F11B48026858
:102D50000A43026003EB83039A0039461848104483
:102D6000FFF7E6FDEA6A174B1B68DB6A9A42C5D299
:102D7000C7E7144B1B68DB6A03EB83039A00104B15
:102D80009B58012B06D806E00F4A136801331360E5
:102D9000002400E001240D4B1B6803B101242046F0
:102DA000F8BD00BF940F0020A80F0020E40E002003
:102DB000AC0F0020A40F0020A00F00200410002062
:102DC000080F00209C0F0020040F00200810002096
:102DD00038B52E4B1B6813B9FFF7B8FCFEE7FFF7B9
:102DE000CBFC2A4B1A68013A1A601B68002B46D1AB
:102DF000274B1B682BBB002444E0264BDB68DC68B8
:102E000004F11800FFF7A0FD251D2846FFF79CFDE3
:102E1000E36A012202FA03F11F4802680A430260D2
:102E200003EB83039A0029461C481044FFF780FDFA
:102E3000E26A1B4B1B68DB6A9A4202D30122194BE0
:102E40001A60144B1B68002BD7D1174B1B6853B962
:102E50000DE0FFF72FFF10B10122124B1A60124A4A
:102E60001368013B1360104B1B68002BF1D10D4B15
:102E70001B68012B05D1FFF75DFC012402E0002453
:102E800000E00024FFF796FC204638BD940F002098
:102E9000980F0020B00F002004100020080F002021
:102EA0009C0F002008100020040F002010B51BE02C
:102EB000FFF7F8FE0F4B1C68FFF78AFFA4B1FFF77E
:102EC0005BFC0C4BDB68DC68201DFFF73DFD0A4A0C
:102ED0001368013B1360094A1368013B1360FFF755
:102EE00069FC2046FFF7C8FD044B1B68002BDFD1AF
:102EF00010BD00BFF00E0020980F0020EC0E002047
:102F000008B5FFF7D3FF034B1B68012BF9D9FFF777
:102F100011FCF6E7080F002038B51C4B1B681BB1ED
:102F200001221B4B1A6038BD0022194B1A60194B45
:102F30001B68B3FA83F3DBB2C3F11F0303EB830116
:102F40008A0015498A5812B9FFF700FCFEE7124DB6
:102F50009900CA1890002844426854684460194493
:102F60008A0008322A44944205D1606803EB830149
:102F70008A002A44506003EB83039A00064B1A44EC
:102F80005368DA68054B1A6038BD00BF940F002003
:102F90000810002004100020080F00209C0F0020C3
:102FA00038B5C368DC6814B9FFF7D0FBFEE704F15D
:102FB00018052846FFF7C8FC134B1B68A3B9251D4D
:102FC0002846FFF7C1FCE36A012202FA03F10F4829
:102FD00002680A43026003EB83039A0029460C4807
:102FE0001044FFF7A5FC03E029460A48FFF7A0FCC0
:102FF000E26A094B1B68DB6A9A4203D90120074B3E
:10300000186038BD002038BD940F00200410002047
:10301000080F0020B00F00209C0F00200810002097
:10302000054B1B6823B1054B1B681BB90220704779
:103030000120704700207047E80E0020940F002008
:10304000014B1868704700BF7400002010B5431E84
:103050000A44914204D011F8014B03F8014FF8E7FC
:1030600010BD03460244934202D003F8011BFAE765
:1030700070472DE9F04788B0149F002B1E46129927
:10308000B8BF03F1004327F02007B6BF1E46002358
:103090002D23462F1446109DDDF84CA00B7003D055
:1030A000452F03D1013501E0032300E0022307AAE5
:1030B000049206AA03928DE828042246334600F0C3
:1030C00017FD472F804602D1119BDB0728D5462FDD
:1030D00008EB050911D198F80030302B0AD10022F5
:1030E00000232046314602F037FC18B9C5F101052E
:1030F000CAF80050DAF80030994400220023204634
:10310000314602F029FC08B9302202E0CDF81C90CB
:1031100006E0079B994503D9591C07911A70F8E7F7
:103120004046079B159AC8EB0303136008B0BDE83F
:10313000F087034673B50029B8BF494203F8022B54
:10314000B4BF2D222B22092942701ADD0DF107028E
:1031500016460A2591FBF5F405FB1411092C01F123
:10316000300102F8011D2146F4DC3031541E02F812
:10317000011CB4421A460AD214F8012B03F8012BA1
:10318000F7E71A463024214402F8024B5970101A0E
:1031900002B070BD2DE9F04F91B00C46DDF86880AB
:1031A00016461F46054601F03BFA03681846099388
:1031B00000F0D0FB00230E93D8F800300A900733BC
:1031C00023F0070303F1080294F81890D4F800B034
:1031D000C8F80020D3E90023C4E91223D4F84CA096
:1031E000D4F848802AF000430B934FF0FF32A74BEE
:1031F00040460B9902F0E2FBA0B94FF0FF32A34B1F
:1032000040460B9902F0BCFB60B900220023404607
:10321000514602F0ABFB10B12D2384F843309C4B98
:103220009C4A0AE0424653464046514602F0C6FBDD
:10323000002800F09281984B984AB9F1470F8CBF53
:1032400090469846032323612BF0040323604FF03C
:10325000000A3DE0B9F1670F00F08A81B9F1470F2C
:1032600000F0868123600193636800210DF1330231
:10327000059002920093424653460691CDF8109075
:10328000CDF80CE02846FFF7F4FE09F0DF03472BEA
:10329000804600F08481B9F1650F0D9900F28D81AF
:1032A00001394A4604F150000D91FFF742FF0E9A92
:1032B00082468318012A236100F37C812268D107AA
:1032C00000F178819DF8333013B12D2384F8433019
:1032D000009733460FAA2146284600F09FF9013097
:1032E00002D14FF0FF3096E123685A0501D42369DB
:1032F00065E0B9F1650F40F2D580D4E912010022F2
:10330000002302F029FB78B30123654A31462846A1
:10331000B8470130E5D00E9B0D9A9A420BDB23682B
:10332000D80708D423689B0740F111814FF00008AB
:1033300004F1190906E10A9B099A31462846B84763
:103340000130CED04FF0000804F11A090E9B013B6A
:103350009845E7DA01234A4631462846B847013006
:10336000BFD008F10108F1E70D9B002B29DC0123F8
:103370004B4A31462846B8470130B2D00D9B23B99D
:103380000E9B13B92368D907CCD50A9B099A3146FD
:103390002846B8470130A4D04FF0000904F11A0ABA
:1033A0000D9B5B42994509DA012352463146284676
:1033B000B847013095D009F10109F1E70E9B42466B
:1033C000A7E00E9AA36D9A42A8BF1A46002A91461A
:1033D00006DC4FF0000A29EAE97904F11A0B11E042
:1033E0001346314642462846B8470130F1D178E7C6
:1033F00001235A4631462846B84701303FF471AFA1
:103400000AF1010AA36DC9EB03029245F0DB08EB58
:1034100003090D9A0E9B9A420FDB2368DA070CD43E
:103420000E9B0D9A9844C9EB08089B1A9845A8BFB3
:103430009846B8F1000F08DC0FE00A9B099A314664
:103440002846B8470130EBD14BE743464A46314660
:103450002846B84701303FF444AF4FF0000928EA4E
:10346000E87804F11A0A09E0012352463146284659
:10347000B84701303FF435AF09F101090D9A0E9BB1
:103480009B1AC8EB03039945EEDB4BE7FFFFEF7F89
:10349000A85C0008AC5C0008B05C0008B45C0008E4
:1034A000B85C00080E9A012A01DCDB0738D501233D
:1034B000424631462846B84701303FF412AF0A9BD6
:1034C000099A31462846B84701303FF40AAFD4E99B
:1034D00012010022002302F03FFA20B14FF0000851
:1034E00004F11A090EE00E9B08F10102013B19E0FC
:1034F00001234A4631462846B84701303FF4F1AE31
:1035000008F101080E9B013B9845F1DB534604F19D
:10351000500231462846B84701307FF403AFE0E659
:103520004246012331462846B8470130EED1D8E65D
:1035300001234A4631462846B84701303FF4D1AE10
:1035400008F10108E3680F9A9B1A9845F0DBE068E0
:103550000F9B9842B8BF18465DE062680EA8531CE6
:103560000DF1340E4BF480637FF474AE062201E05B
:1035700012B90122626075E6002106910DF1330156
:103580008DE80C00236005904246CDF81090CDF8F0
:103590000CE0029153462846FFF76BFD80460D9BD9
:1035A000D81C02DB626893421DDDA9F102095FFAB3
:1035B00089F970E60133236184E6B9F1660F14D10D
:1035C0000029636807DD216113B92268D2071DD580
:1035D00001330B4419E013B92268D00701D5023337
:1035E00013E0012311E04FF067090D9B0E9A9342FF
:1035F00005DB22682361D10708D5013305E0002BE4
:10360000D4BFC3F102030123134423610D9B4FF088
:10361000000AA36556E611B0BDE8F08F2DE9F0472A
:1036200091461F460A698B6806469342B8BF134607
:10363000C9F8003091F843200C46DDF8208012B123
:103640000133C9F800302368990642BFD9F8003029
:103650000233C9F80030256815F0060510D104F1D1
:10366000190A07E00123524639463046C047013067
:103670001AD00135E368D9F800209B1A9D42F1DB8E
:1036800094F843302268003318BF012392060FD507
:10369000E118302081F843005A1C94F84510224468
:1036A000023382F8431003E04FF0FF30BDE8F087AB
:1036B00004F1430239463046C0470130F4D0226855
:1036C000D9F80050E36802F00602042A08BF5D1B27
:1036D0002269A3680CBF25EAE57500259342C4BFA3
:1036E0009B1AED184FF000091A344D4509D00123FB
:1036F000224639463046C0470130D5D009F101098C
:10370000F3E70020BDE8F0872DE9F04317460A7E75
:1037100085B06E2A984606460C460C9B01F1430E76
:1037200000F0AE8011D8632A22D009D8002A00F018
:10373000BB80582A40F0CA8081F84520834955E073
:10374000642A1ED0692A1CD0C0E0732A00F0B08021
:1037500009D86F2A2ED0702A40F0B8800A6842F04B
:1037600020020A603EE0752A24D0782A3AD0ADE0E3
:103770001A6801F14205111D1960136884F842307E
:10378000A8E021681A6811F0800F02D0111D19609D
:1037900008E011F0400F02F10401196002D0B2F903
:1037A000003000E01368002B3CDA2D225B4284F8E5
:1037B000432037E021681A6811F0800F02D0111DF4
:1037C000196007E011F0400F02F10401196001D007
:1037D000138800E01368227E5C496F2A14BF0A2216
:1037E00008221BE078225A4984F84520226818688C
:1037F00012F0800F00F104051D6003D1550601D5BC
:10380000038800E00368D00744BF42F02002226032
:103810001BB9226822F0200222601022002084F8C6
:10382000430001E049490A226568002DA56008DBD4
:10383000206820F0040020602BB9002D7DD1754652
:103840000CE0002B79D07546B3FBF2F002FB10338D
:10385000CB5C05F8013D03460028F5D1082A0BD1C1
:103860002368DA0708D5236962689A42DEBF3023ED
:1038700005F8013C05F1FF35C5EB0E0323612EE091
:1038800008681A6810F0800F496903D0101D18608D
:10389000136808E010F0400F02F10400186013688C
:1038A00001D0198000E0196000232361754616E0FD
:1038B0001A68111D1960156800216268284600F019
:1038C000C5FE08B1401B6060636804E004F1420576
:1038D00084F8422001232361002384F84330CDF88B
:1038E00000803B4603AA21463046FFF797FE013091
:1038F00002D14FF0FF3026E023692A463946304690
:10390000C0470130F5D023689B0710D5002504F18E
:10391000190907E001234A4639463046C0470130BD
:10392000E7D00135E368039A9B1A9D42F2DBE06819
:10393000039B9842B8BF184605E00B7804F1420596
:1039400084F842308AE705B0BDE8F083BA5C00082D
:10395000CB5C0008034613F8012B002AFBD1181A90
:103960000138704730B5141E05469BB0184604DA7E
:103970008B232B604FF0FF301DE04FF40273ADF846
:103980000C300CBF234604F1FF33029305934FF62E
:10399000FF7300910491ADF80E3002461E9B6946FC
:1039A000284601F049FA431CBCBF8B232B6014B19D
:1039B000009B00221A701BB030BD000007B50093B9
:1039C00013460A46014603480068FFF7CBFF03B0E1
:1039D0005DF804FB740000202DE9F74F03690C69C2
:1039E00080469C427FDC013C01F114074FEA840EC3
:1039F00000F1140606EB0E0357F82450019356F815
:103A000024300135B3FBF5F507EB0E09C5B34FF0D4
:103A1000000A3846B446D34650F8043B9AB205FB38
:103A200002A21B0C4FEA124A05FB03A392B2C2EB9F
:103A30000B0BBCF800204FEA134A5A441FFA83FBD1
:103A4000DCF800308145CBEB134303EB224392B209
:103A500042EA03424FEA234B4CF8042BDCD256F8DF
:103A60000E306BB9019B043B9E421A4602D3C8F844
:103A7000104005E01268043B002AF8D1013CF3E74E
:103A8000404600F0FEFF00282BDB304601354FF0AA
:103A9000000E57F8042B036891B2C1EB0E0E120C06
:103AA00099B27144C2EB134303EB214389B24FEA4D
:103AB000234EB94541EA034340F8043BE9D256F8A6
:103AC000242006EB840362B9043B9E421A4602D3CB
:103AD000C8F8104005E01268043B002AF8D1013C08
:103AE000F3E7284600E0002003B0BDE8F08F0000B7
:103AF0002DE9F04F456A95B08246219CCDE902231D
:103B000045B9102000F09AFDCAF824004560856090
:103B10000560C560DAF82430196859B15A68012384
:103B200093404A608B60504600F0D3FDDAF82430B1
:103B300000221A60039BA04A002BBDBF0123236013
:103B4000039B0023BCBF23F000430393DDF80C80EC
:103B5000A8BF236028F000431B0D1B0593421DD115
:103B600042F20F73209A1360029B43B9934A944B1D
:103B7000C8F31300002814BF1846104600E0904810
:103B8000229B002B00F04685C37813B100F1080397
:103B900000E0C31C229A136000F03CBDDDE9024541
:103BA000002200232046294601F0D6FE074658B1E0
:103BB000209A01231360229B002B00F01E85814870
:103BC0001860013800F026BD12AB019313AB0093CF
:103BD00022462B46504600F0CFFFC8F30A56049009
:103BE00056B1C5F3130343F07F51204641F4401111
:103BF000A6F2FF3611971DE0139B129E1E4406F29B
:103C00003243202B0ADD029A06F21240C3F1400330
:103C100022FA00F008FA03F3184304E0C3F120008D
:103C2000029B03FA00F001F0B9FB0123A1F1F87146
:103C3000013E11930022644B01F072FA58A3D3E9BC
:103C4000002301F021FC58A3D3E9002301F06AFA14
:103C5000044630460D4601F0B1FB55A3D3E90023DD
:103C600001F012FC02460B462046294601F05AFAA2
:103C700004460D4601F0B8FE00228346002320468C
:103C8000294601F073FE58B1584601F097FB0246F1
:103C90000B462046294601F05FFE08B90BF1FF3BB9
:103CA000BBF1160F0DD8DDE90223484901EBCB012A
:103CB000D1E9000101F078FE30B10BF1FF3B0023A8
:103CC00000E00123109300E01090129B9E1B731ED6
:103CD000079343BFC3F10008002307934FF0000888
:103CE000BBF1000F06DB079BCDF82CB05B440793BC
:103CF000002705E00023CBEB0808CBF100070B936E
:103D00001E9B092B28D8052BC4BF043B1E931E9B6A
:103D1000C8BF0025A3F10203D8BF0125032B20D87B
:103D2000DFE803F0060E0204012302E0012308E0AD
:103D300000230A931F9B002B1DDD9946059321E06C
:103D400000230A931F9B0BEB030909F10103012BCD
:103D50000593B8BF012315E0012500231E930A95A2
:103D600001E001230A934FF0FF390022CDF81490AF
:103D700012231F9206E04FF001094B46CDF8149034
:103D8000CDF87C90DAF8244000226260042101F131
:103D900014029A421CD86268490001326260F6E758
:103DA00061436F63A787D23FB3C8608B288AC63F41
:103DB000FB799F501344D33F0000F07FDC5C000888
:103DC000E55C0008B95C00080000F83FF05C000802
:103DD0006168504600F048FCDAF8243020601B6827
:103DE0000693059B0E2B00F25B81002D00F058819D
:103DF000DDE90234BBF1000FCDE90E3430DD9F4A1E
:103E00000BF00F034FEA2B1502EBC303E80618CBA8
:103E1000CDE908340CD5DDE90E01994B05F00F050D
:103E2000D3E9082301F05AFC0324CDE9020100E0A4
:103E30000224934E6DB1E90708D5DDE90801D6E902
:103E4000002301F021FBCDE9080101346D10083693
:103E5000F0E7DDE90823DDE9020101F03FFC20E0A5
:103E6000CBF1000505B3DDE90E01844B05F00F022F
:103E700003EBC203D3E9002301F006FBCDE9020105
:103E80007F4E2D110023022455B1EA0705D5D6E94E
:103E9000002301F0F9FA013401236D100836F3E72D
:103EA0001BB1CDE9020100E00224109BE3B1DDE982
:103EB00002560022734B2846314601F057FD98B157
:103EC000059B8BB1B9F1000F40F3E6800BF1FF3396
:103ED0000893314600226C4B284601F0D5FA013494
:103EE000CDE902014E4602E0059ECDF820B0204605
:103EF00001F064FADDE9022301F0C6FA634B002207
:103F000001F010F9A1F1507304460C931D46D6B987
:103F1000DDE9020100225E4B01F002F922460C9B12
:103F2000CDE9020101F040FD002840F03F820C99EC
:103F3000224601F10043DDE9020101F017FD0028EE
:103F400040F02B82A8E00A9A4C4B711E002A49D0FF
:103F500003EBC103D3E9002300204E4901F0BEFB6F
:103F600022462B4601F0DCF8CDE90C01069CDDE988
:103F7000020101F039FD054601F020FA02460B4628
:103F8000DDE9020101F0CCF8DDE90C23303504F85D
:103F9000015BCDE9020101F0E9FC002840F01D833E
:103FA000DDE902230020374901F0BAF8DDE90C23EE
:103FB00001F0DCFC002840F0D180069BE31AB342FC
:103FC0006ADADDE90C0100222F4B01F05DFA0022D4
:103FD000CDE90C01DDE902012B4B01F055FACDE9E9
:103FE0000201C4E703EBC1012246D1E900012B46DF
:103FF00001F04AFA069BCDE90C011D469C19DDE94A
:10400000020101F0F1FC064601F0D8F902460B4628
:10401000DDE9020101F084F8303605F8016BAC42AD
:10402000CDE902014FF0000222D11A4BDDE90C016B
:1040300001F078F802460B46DDE9020101F0B4FC1C
:10404000002840F08B80DDE90C230020114901F0AD
:1040500067F802460B46DDE9020101F087FCD8B1A2
:1040600014F8013C621E302B40F0B7821446F7E78B
:10407000054B01F009FACDE90201C0E7F05C000848
:10408000B85D00080000F03F0000244000001C4024
:10409000000014400000E03FDDE90E34CDE90234B9
:1040A000139B002B7CDBBBF10E0F79DCAB4B03EBDE
:1040B000CB03D3E900671F9B002B14DA059B002B71
:1040C00011DC40F06C810022A54B3046394601F0EE
:1040D000DBF9DDE9022301F05DFC059D2E46002899
:1040E00040F05F8165E1069CDDE9028932463B468E
:1040F0004046494601F0F2FA01F076FC054601F02F
:104100005DF932463B4601F0BFF90B46024649468F
:10411000404601F005F805F1300E069B04F801EB6E
:10412000C3EB040E059B73452DD102460B4600F0F0
:10413000F9FF8046894602460B463046394601F073
:1041400015FC78B942464B463046394601F004FC2E
:10415000002800F04482EB0704D440E2DDF820B0F0
:1041600000E01C4614F8012C631E392A07D1069A78
:104170009A42F6D1069930220BF1010B0A701A7897
:1041800001321A702BE20022764B01F07DF90022F9
:1041900000238046894601F0DFFB0028A6D01EE2FE
:1041A0000A9A002A2BD01E9A012A0ADC119A12B10F
:1041B00003F2334302E0129BC3F136033D4644460B
:1041C00013E0059B5D1EAF42BFBF0B9BEA1B9B1814
:1041D0000B93059BB6BF2F467D1B0025002BA7BF69
:1041E0004446059BC3EB08040023079A01211A44A7
:1041F00050469844079200F00BFB064602E03D460D
:1042000044460A9E5CB1079B002B08DDA342A8BF71
:104210002346079AC3EB0808E41AD31A0793002F22
:104220001DDD0A9BABB18DB131462A46504600F0E8
:1042300089FB049A01460646504600F0F2FA0499BA
:104240000890504600F045FA089B04937A1B06D06C
:1042500000E03A460499504600F074FB04900121B6
:10426000504600F0D5FA0B9B05465BB31A46014653
:10427000504600F067FB1E9B0546012B18DC029B95
:1042800083B9039BC3F3130373B9039B23F0004764
:104290003F0D3F054FB1079B08F10108013307931C
:1042A000012702E0002700E0029F0B9B73B100E0B2
:1042B00000272B6905EB8303186900F05CFAC0F155
:1042C000200004E01E9B012BD9DD0B9F0120079BE2
:1042D000184410F01F0008D0C0F12003042B02DDA9
:1042E000C0F11C0002E006D018461C30079B804439
:1042F000034404440793B8F1000F05DD42460499D6
:10430000504600F06DFB0490079B002B05DD29460D
:104310001A46504600F064FB0546109B23B329461D
:10432000049800F0AEFB00281EDA00230A2204994C
:10433000504600F0E5F90A9B0BF1FF3B0490002B7F
:1043400000F05F81314600230A22504600F0D8F980
:10435000B9F1000F06463FDC3BE000BFF05C00080F
:104360000000144000002440059B002B2BDC1E9B0A
:10437000022B28DDDDF81490B9F1000F11D1294688
:104380004B460522504600F0BBF90146054604980D
:1043900000F077FB00280CDC03E0354600E0002548
:1043A0002E461F9B069C6FEA030B09E03546DDF89D
:1043B00020B0069B069A5C1C312313700BF1010B95
:1043C00005960026F7E00A9BDDF8149023B9069CB9
:1043D000B2E01E9B022BCFDC002C05DD31462246CD
:1043E000504600F0FDFA06469FB17168504600F055
:1043F0003BF90446326906F10C01023292000C309E
:10440000FEF724FE01222146504600F0E9FA05900D
:1044100000E00596029B069F03F0010307932946DF
:104420000498FFF7D9FA3146044600F130080498A1
:1044300000F027FB059A02902946504600F03DFB0C
:10444000C36802463BB901460A90049800F019FB84
:104450000A9A034600E00123114650460A9300F0F1
:1044600038F90A9B53B91E9A42B9079A32B9B8F182
:10447000390F2AD0029B002B1CDC1DE0029A002A77
:1044800004DB1BD11E9ACAB9079ABAB9002B13DDF7
:1044900001220499504600F0A3FA2946049000F046
:1044A000F0FA002803DC07D118F0010F04D0B8F1AE
:1044B000390F0AD004F131087C1C0CE0002B07F105
:1044C00001040BDDB8F1390F03D139233B700137FB
:1044D00056E008F1010887F800806CE0069B27464B
:1044E000E31A4B4504F8018C3BD000230A220499BF
:1044F000504600F005F9059B04909E424FF00A02D9
:104500004FF000033146504604D100F0F9F806465A
:10451000059084E700F0F4F8002306460A22059986
:10452000504600F0EDF8059079E700230A2204993F
:10453000504600F0E5F8049029460498FFF74CFA3D
:10454000069B00F1300804F8018BE31A4B45ECDBC5
:10455000069B0596B9F1010FACBF4B4401331F46D2
:10456000002601220499504600F03AFA29460490A8
:1045700000F087FA002803DC15D118F0010F12D0E3
:104580003C4614F8013C621E392B09D1069B93422C
:1045900004D10BF1010B3123069A02E01446F0E737
:1045A0000133137007E03C4614F8013C621E302BC7
:1045B00001D11446F8E72946504600F08AF8059BD9
:1045C0006BB12EB19E4203D03146504600F081F8C7
:1045D0000599504600F07DF801E0DDF820B004991F
:1045E000504600F076F80023209A23700BF1010367
:1045F0001360229B1BB11C6001E008480AE006988A
:1046000008E0B9F1000F3FF7E2AE1E9B022B7FF7E7
:10461000DEAEB1E615B0BDE8F08F00BFB85C0008B3
:10462000044B1B68186A044B002808BF1846F0307A
:10463000704700BF7400002078000020024B014644
:10464000186800F041BB00BF7400002010B5C9B26B
:1046500002449042034605D01C7801308C42F8D1C8
:10466000184610BD002010BD70B5456A04460E46C0
:104670003DB91020FFF7E2FF60624560856005608C
:10468000C560656AEB6843B1636ADB6853F826006E
:1046900078B1026843F8262017E021220421204641
:1046A00000F0B8FA636AE860DB68002BECD1002008
:1046B00070BD012101FA06F56A1D9200204600F046
:1046C000A9FA0028F3D04660856000230361C36027
:1046D00070BD70B5446A06460D463CB91020FFF720
:1046E000ADFF7062446084600460C4603DB1736A71
:1046F0006A68DB6853F82210296043F8225070BDC5
:104700002DE9F04106460C460D691F4601F1140ED5
:104710000023DEF80000013381B202FB0171000CBE
:104720000F0C02FB007089B201EB00419D424FEA81
:1047300010474EF8041BECDCD7B1A3689D4212DB96
:10474000616830460131FFF78FFF8046226904F12E
:104750000C01023292000C30FEF778FC2146304604
:10476000FFF7B7FF444604EB850301355F61256120
:104770002046BDE8F081030C1B0413B9000410238C
:1047800000E0002310F07F4F04BF0002083310F058
:10479000704F04BF0001043310F0404F04BF80008D
:1047A0000233002803DB420003D5581C704718462B
:1047B000704720207047036813F007020BD0D90719
:1047C00022D49A074BBF5B089B08036003604CBF71
:1047D00001200220704799B209B91B0C102213F076
:1047E000FF0F04BF1B0A0832190704BF1B0904325C
:1047F000990704BF9B080232D90702D45B0805D091
:104800000132036010467047002070472020704737
:1048100010B50C460121FFF727FF01224461026118
:1048200010BD2DE9F74F14460A69236988469A425C
:10483000BEBF0B46A0461C46D8F81070D4F81090A6
:10484000D8F80830D8F8041007EB09069E42C8BF14
:104850000131FFF709FF00F114052B4605EB860C2B
:104860000022634502D243F8042BFAE704F1140254
:1048700008F1140102EB890301EB87070093009B09
:104880000192934257D9B2F800B0BBF1000F23D088
:104890008946AE464FF0000859F8044BBEF800A018
:1048A000A3B20BFB03A34FEA144ADEF800404344D3
:1048B0004FEA14480BFB0A84F24604EB13449BB204
:1048C00043EA04434F454FEA14484AF8043B01D9F0
:1048D000D646E1E7CEF80480019B0432B3F802A08B
:1048E000BAF1000F21D02C4689462B684FF0000802
:1048F000B9F800E0B4F802B09BB20AFB0EBEA346C2
:10490000F04443EA08434BF8043B59F8043BB4F83D
:1049100004E01B0C0AFB03E34F4503EB18434FEA8B
:10492000134801D95C46E3E763600435A7E75CF808
:10493000043D13B9013E002EF9DC066103B0BDE869
:10494000F08F00002DE9F843154612F003020646E9
:104950000F4607D0214C013A002354F82220FFF7DC
:10496000CFFE0746AD1036D0746A3CB91020FFF771
:1049700065FE7062446084600460C460D6F8248080
:10498000D8F808404CB940F271213046FFF740FF9B
:1049900004460023C8F8080003604FF00008EB0746
:1049A0000AD5394622463046FFF73BFF8146394655
:1049B0003046FFF78EFE4F466D100CD0206808B1D0
:1049C0000446ECE7224621463046FFF72AFF2060E6
:1049D000C0F80080F4E73846BDE8F883E05D0008E1
:1049E0002DE9F0470C460746914626694FEA621AC0
:1049F00056444968A368751CAB4202DA01315B007A
:104A0000FAE73846FFF730FE002380461A4600F1E9
:104A10001401534503DA41F823200133F9E72AEA68
:104A2000EA73206901EB830319F01F0904F11401F3
:104A300001EB800E14D0C9F1200C002208689A46C0
:104A400000FA09F0024343F8042B51F8042B8E4579
:104A500022FA0CF2F2D8CAF8042042B1B51C06E0E2
:104A6000043B51F8042B8E4543F8042FF9D8013D3F
:104A70003846C8F810502146FFF72BFE4046BDE8E7
:104A8000F08703690A6910B59B1A11D1920014309E
:104A9000143183180A4453F8044D52F8041D8C4213
:104AA00002D007D3012010BD9842F4D3002010BDDE
:104AB000184610BD4FF0FF3010BD2DE9F8430C46ED
:104AC0000746114620461546FFF7DBFF061E08D1B4
:104AD00031463846FFF7C8FD012303614661BDE852
:104AE000F883BCBF23462C4638466168BABF1D46D2
:104AF00001260026FFF7B8FD2B69C660266905F17F
:104B0000140904F1140101EB860709EB830800F195
:104B100014054FF0000C51F8042B59F8044B93B2D4
:104B20009C44A3B2240CC3EB0C03C4EB124202EB73
:104B300023429BB24FEA224CC84543EA02428E46CA
:104B400045F8042BE7D8BE450ED25EF8041B8AB2A6
:104B50006244131403EB114392B242EA03424FEA58
:104B6000234C45F8042BEEE755F8043D0BB9013E04
:104B7000FAE70661BDE8F8832DE9F3411C460121FF
:104B80009046089E099DFFF76FFDC4F31302C4F31E
:104B90000A5407460CB142F480120192B8F1000F9A
:104BA00019D002A840F8088DFFF705FE009B48B118
:104BB000019AC0F1200102FA01F10B43C2407B616E
:104BC000019200E07B61019B002B14BF02210121B7
:104BD000BB61396107E001A8FFF7EDFD019B0121F1
:104BE0007B613961203034B1A4F233440444346031
:104BF000C0F1350009E0A0F2324007EB81033060DC
:104C00001869FFF7B8FDC0EB41102860384602B0C4
:104C1000BDE8F08138B502FB01F4214600F054F8FC
:104C2000054618B122460021FEF71BFA284638BD7A
:104C300038B50546002944D051F8043C0C1F002B20
:104C4000B8BFE41800F029FA1E4A1368114613B9D8
:104C50006360146030E0A3420DD92268A01883423B
:104C600001BF18685B681218226063600C6023E063
:104C7000A24203D813465A68002AF9D118681918B5
:104C8000A1420BD12168014458188242196013D106
:104C900010685268014419605A600DE002D90C2373
:104CA0002B6009E021686018824201BF10685268D9
:104CB0000918216062605C602846BDE8384000F059
:104CC000EDB938BD1010002070B5CD1C25F00305DE
:104CD00008350C2D38BF0C25002D064601DBA942F6
:104CE00002D90C23336046E000F0D7F9234B1C684F
:104CF0001A462146A1B10B685B1B0ED40B2B03D9BE
:104D00000B60CC18CD501EE08C420BBF63684B6823
:104D10001360636018BF0C4615E00C464968E9E76C
:104D2000174C23681BB9304600F07AF920602946F9
:104D3000304600F075F9431C18D0C41C24F003045D
:104D4000A0420DD12560304600F0A8F904F10B0017
:104D5000231D20F00700C31A0ED05A42E25070BD46
:104D6000211A304600F05CF90130EBD10C2333609E
:104D7000304600F093F9002070BD00BF10100020F5
:104D80000C1000202DE9F0478E6882469E420C46AA
:104D9000914698463ED88A8912F4906F3AD0256899
:104DA000096902236F1A656905EB450595FBF3F563
:104DB0007B1C43449D4238BF1D4653050FD52946F1
:104DC000FFF782FF064698B13A462169FEF73EF9A1
:104DD000A38923F4906343F08003A38113E02A4660
:104DE00000F05DF9064670B921695046FFF720FFD3
:104DF0000C23CAF80030A3894FF0FF3043F0400382
:104E0000A381BDE8F08726613E4426604646656181
:104E1000ED1BA560464528BF4646494632462068F8
:104E200000F020F9A36800209B1BA36023681E44A8
:104E30002660BDE8F08700002DE9F04F9DB0039398
:104E40008B8980461C060D4616460DD50B695BB94D
:104E50004021FFF739FF2860286118B90C23C8F8F2
:104E60000030CDE040236B610023099320238DF8AF
:104E70002930DFF89CB130238DF82A3037463C4684
:104E800014F8013B1BB9B7EB060910D003E0252B42
:104E9000F9D02746F3E74B46324629464046FFF70E
:104EA00071FF013000F0A780099B4B4409933B78C8
:104EB000002B00F0A08000234FF0FF3204930793F3
:104EC000059206938DF853301A9301260522217816
:104ED0004E48FFF7BBFB671C049B38B14B4A3C466E
:104EE000801A06FA00F018430490EFE7D90644BF91
:104EF00020228DF853201A0744BF2B228DF853200F
:104F000022782A2A03D0079A00210A200BE0039A6C
:104F1000111D12680391002A10DA524243F0020078
:104F2000079204900BE027463B780134303B092B75
:104F300003D800FB02320121F5E701B107923B786B
:104F40002E2B1ED17B782A2B0AD1039B02371A1DE8
:104F50001B680392002BB8BF4FF0FF33059310E09E
:104F6000002319460593781C0A2407463A78013035
:104F7000303A092A03D804FB01210123F5E703B1E4
:104F80000591032239782248FFF760FB40B14023A6
:104F9000CBEB000003FA00F0049B013718430490A8
:104FA000397806221B487E1C8DF82810FFF74EFB2F
:104FB00088B1194B33B9039B073323F00703083338
:104FC000039314E003AB00932A46144B04A9404614
:104FD000FEF7E0F807E003AB00932A460F4B04A965
:104FE0004046FEF791FBB0F1FF3F824603D0099B9C
:104FF0005344099342E7AB895B0601D4099801E069
:105000004FF0FF301DB0BDE8F08F00BFEC5D000831
:10501000F25D0008F65D000895310008854D000836
:1050200038B5064C0023054608462360FCF7D6FD3C
:10503000431C02D1236803B12B6038BD141000203B
:1050400082B001B901A93AB143B113780B6012786B
:10505000101C18BF012003E0104601E06FF00100B2
:1050600002B07047884210B501EB020301D8421E1E
:105070000BE09842FBD28118D21AD34204D013F825
:10508000014D01F8014DF8E710BD994204D011F827
:10509000014B02F8014FF8E710BD70477047F8B5B3
:1050A000074615460E4621B91146BDE8F840FFF700
:1050B0000BBE1AB9FFF7BCFD2846F8BD00F022F878
:1050C00085420ED929463846FFF7FEFD044650B109
:1050D00031462A46FDF7BAFF31463846FFF7A8FDAC
:1050E00001E03046F8BD2046F8BD49B1FF2A85BF32
:1050F0008A2303600A704FF0FF3098BF0120704789
:105100000846704751F8040C0028BEBF091851F832
:10511000043CC0180438704781F0004102E000BF31
:1051200083F0004330B54FEA41044FEA430594EA67
:10513000050F08BF90EA020F1FBF54EA000C55EAA2
:10514000020C7FEA645C7FEA655C00F0E2804FEA73
:105150005454D4EB5555B8BF6D420CDD2C4480EA55
:10516000020281EA030382EA000083EA010180EA85
:10517000020281EA0303362D88BF30BD11F0004FD3
:105180004FEA01314FF4801C4CEA113102D0404209
:1051900061EB410113F0004F4FEA03334CEA133344
:1051A00002D0524263EB430394EA050F00F0A7805C
:1051B000A4F10104D5F1200E0DDB02FA0EFC22FA57
:1051C00005F2801841F1000103FA0EF2801843FA4B
:1051D00005F359410EE0A5F120050EF1200E012A3C
:1051E00003FA0EFC28BF4CF0020C43FA05F3C0187A
:1051F00051EBE37101F0004507D54FF0000EDCF1F3
:10520000000C7EEB00006EEB0101B1F5801F1BD39B
:10521000B1F5001F0CD349085FEA30004FEA3C0C9F
:1052200004F101044FEA445212F5800F80F09A8095
:10523000BCF1004F08BF5FEA500C50F1000041EB99
:10524000045141EA050130BD5FEA4C0C404141EB9D
:10525000010111F4801FA4F10104E9D191F0000FC4
:1052600004BF01460020B1FA81F308BF2033A3F147
:105270000B03B3F120020CDA0C3208DD02F1140C3E
:10528000C2F10C0201FA0CF021FA02F10CE002F179
:105290001402D8BFC2F1200C01FA02F120FA0CFC72
:1052A000DCBF41EA0C019040E41AA2BF01EB0451BB
:1052B000294330BD6FEA04041F3C1CDA0C340EDCB9
:1052C00004F11404C4F1200220FA04F001FA02F3FC
:1052D00040EA030021FA04F345EA030130BDC4F1BA
:1052E0000C04C4F1200220FA02F001FA04F340EAAF
:1052F0000300294630BD21FA04F0294630BD94F060
:10530000000F83F4801306BF81F480110134013D46
:105310004EE77FEA645C18BF7FEA655C29D094EAB7
:10532000050F08BF90EA020F05D054EA000C04BF35
:105330001946104630BD91EA030F1EBF0021002020
:1053400030BD5FEA545C05D14000494128BF41F0BF
:10535000004130BD14F580043CBF01F5801130BD23
:1053600001F0004545F0FE4141F470014FF00000AE
:1053700030BD7FEA645C1ABF194610467FEA655C5F
:105380001CBF0B46024650EA013406BF52EA033501
:1053900091EA030F41F4002130BD00BF90F0000FEF
:1053A00004BF0021704730B54FF4806404F132042B
:1053B0004FF000054FF0000150E700BF90F0000FE4
:1053C00004BF0021704730B54FF4806404F132040B
:1053D00010F0004548BF40424FF000013EE700BFDB
:1053E00042004FEAE2014FEA31014FEA02701FBF6B
:1053F00012F07F4393F07F4F81F06051704792F03D
:10540000000F14BF93F07F4F704730B54FF46074B6
:1054100001F0004521F0004120E700BF50EA010201
:1054200008BF704730B54FF000050AE050EA0102AE
:1054300008BF704730B511F0004502D5404261EB1E
:1054400041014FF4806404F132045FEA915C3FF45F
:10545000DCAE4FF003025FEADC0C18BF03325FEAF8
:10546000DC0C18BF033202EBDC02C2F1200300FAAD
:1054700003FC20FA02F001FA03FE40EA0E0021FAD2
:1054800002F11444C1E600BF70B54FF0FF0C4CF4BC
:10549000E06C1CEA11541DBF1CEA135594EA0C0F72
:1054A00095EA0C0F00F0DEF82C4481EA030621EAAD
:1054B0004C5123EA4C5350EA013518BF52EA0335E8
:1054C00041F4801143F4801338D0A0FB02CE4FF09A
:1054D0000005E1FB02E506F00042E0FB03E54FF0CA
:1054E0000006E1FB03569CF0000F18BF4EF0010EC2
:1054F000A4F1FF04B6F5007F64F5407404D25FEABE
:105500004E0E6D4146EB060642EAC62141EA555170
:105510004FEAC52040EA5E504FEACE2EB4F1FD0CB2
:1055200088BFBCF5E06F1ED8BEF1004F08BF5FEA30
:10553000500E50F1000041EB045170BD06F00046E2
:1055400046EA010140EA020081EA0301B4EB5C048F
:10555000C2BFD4EB0C0541EA045170BD41F4801187
:105560004FF0000E013C00F3AB8014F1360FDEBFAC
:10557000002001F0004170BDC4F10004203C35DA88
:105580000C341BDC04F11404C4F1200500FA05F30B
:1055900020FA04F001FA05F240EA020001F00042AC
:1055A00021F0004110EBD37021FA04F642EB060122
:1055B0005EEA430E08BF20EAD37070BDC4F10C044C
:1055C000C4F1200500FA04F320FA05F001FA04F210
:1055D00040EA020001F0004110EBD37041F10001FC
:1055E0005EEA430E08BF20EAD37070BDC4F1200507
:1055F00000FA05F24EEA020E20FA04F301FA05F26F
:1056000043EA020321FA04F001F0004121FA04F216
:1056100020EA020000EBD3705EEA430E08BF20EAE6
:10562000D37070BD94F0000F0FD101F00046400020
:1056300041EB010111F4801F08BF013CF7D041EAA2
:10564000060195F0000F18BF704703F000465200A6
:1056500043EB030313F4801F08BF013DF7D043EA77
:105660000603704794EA0C0F0CEA135518BF95EA2D
:105670000C0F0CD050EA410618BF52EA4306D1D1B4
:1056800081EA030101F000414FF0000070BD50EAD3
:10569000410606BF1046194652EA430619D094EA5D
:1056A0000C0F02D150EA013613D195EA0C0F05D147
:1056B00052EA03361CBF104619460AD181EA03019B
:1056C00001F0004141F0FE4141F470014FF0000053
:1056D00070BD41F0FE4141F4780170BD70B54FF0EE
:1056E000FF0C4CF4E06C1CEA11541DBF1CEA13556E
:1056F00094EA0C0F95EA0C0F00F0A7F8A4EB050450
:1057000081EA030E52EA03354FEA013100F0888046
:105710004FEA03334FF0805545EA131343EA12630F
:105720004FEA022245EA111545EA10654FEA0026C4
:105730000EF000419D4208BF964244F1FD0404F57D
:10574000407402D25B084FEA3202B61A65EB0305D9
:105750005B084FEA32024FF480104FF4002CB6EB96
:10576000020E75EB030E22BFB61A754640EA0C0016
:105770005B084FEA3202B6EB020E75EB030E22BF56
:10578000B61A754640EA5C005B084FEA3202B6EB97
:10579000020E75EB030E22BFB61A754640EA9C0056
:1057A0005B084FEA3202B6EB020E75EB030E22BF26
:1057B000B61A754640EADC0055EA060E18D04FEAE4
:1057C000051545EA16754FEA06164FEAC30343EA84
:1057D00052734FEAC2025FEA1C1CC0D111F4801F51
:1057E0000BD141EA00014FF000004FF0004CB6E74A
:1057F00011F4801F04BF01430020B4F1FD0C88BFE9
:10580000BCF5E06F3FF6AFAEB5EB030C04BFB6EBF3
:10581000020C5FEA500C50F1000041EB045170BDE6
:105820000EF0004E4EEA113114EB5C04C2BFD4EB13
:105830000C0541EA045170BD41F480114FF0000E97
:10584000013C90E645EA060E8DE60CEA135594EA13
:105850000C0F08BF95EA0C0F3FF43BAF94EA0C0F16
:105860000AD150EA01347FF434AF95EA0C0F7FF48B
:1058700025AF104619462CE795EA0C0F06D152EADF
:1058800003353FF4FDAE1046194622E750EA4106C3
:1058900018BF52EA43067FF4C5AE50EA41047FF4D4
:1058A0000DAF52EA43057FF4EBAE12E74FF0FF3C39
:1058B00006E000BF4FF0010C02E000BF4FF0010C0A
:1058C0004DF804CD4FEA410C7FEA6C5C4FEA430C83
:1058D00018BF7FEA6C5C1BD001B050EA410C0CBFD2
:1058E00052EA430C91EA030F02BF90EA020F002034
:1058F000704710F1000F91EA030F58BF994208BF9B
:1059000090422CBFD8176FEAE37040F00100704757
:105910004FEA410C7FEA6C5C02D150EA013C07D1AE
:105920004FEA430C7FEA6C5CD6D152EA033CD3D0F9
:105930005DF8040B704700BF8446104662468C46F3
:105940001946634600E000BF01B5FFF7B7FF002826
:1059500048BF10F1000F01BD4DF808EDFFF7F4FF4F
:105960000CBF012000205DF808FB00BF4DF808EDDA
:10597000FFF7EAFF34BF012000205DF808FB00BFFD
:105980004DF808EDFFF7E0FF94BF012000205DF81F
:1059900008FB00BF4DF808EDFFF7CEFF94BF0120D4
:1059A00000205DF808FB00BF4DF808EDFFF7C4FFCD
:1059B00034BF012000205DF808FB00BF4FEA410C16
:1059C0007FEA6C5C02D150EA013C0AD14FEA430CF9
:1059D0007FEA6C5C02D152EA033C02D14FF0000036
:1059E00070474FF0010070474FEA410212F5001274
:1059F00015D211D56FF47873B3EB625212D94FEA16
:105A0000C12343F0004343EA505311F0004F23FAFF
:105A100002F018BF404270474FF00000704750EA54
:105A2000013005D111F0004008BF6FF00040704711
:105A30004FF00000704700BF020304050607080985
:105A40000A0B0C0D0E0F101001020000537461635D
:105A50006B206672616D653A0A00000020523020AA
:105A60003D2020253038580A000000002052312007
:105A70003D2020253038580A0000000020523220F6
:105A80003D2020253038580A0000000020523320E5
:105A90003D2020253038580A0000000020523132C5
:105AA000203D20253038580A00000000204C5220AC
:105AB0003D2020253038580A0000000020504320A7
:105AC0003D2020253038580A000000002050535255
:105AD000203D20253038580A000000004653522F40
